{
  "contractName": "Testament",
  "abi": [
    {
      "inputs": [],
      "stateMutability": "nonpayable",
      "type": "constructor"
    },
    {
      "anonymous": false,
      "inputs": [
        {
          "indexed": false,
          "internalType": "address",
          "name": "_registeredAddress",
          "type": "address"
        }
      ],
      "name": "Registered",
      "type": "event"
    },
    {
      "anonymous": false,
      "inputs": [
        {
          "indexed": true,
          "internalType": "address",
          "name": "_from",
          "type": "address"
        },
        {
          "indexed": true,
          "internalType": "address",
          "name": "_to",
          "type": "address"
        },
        {
          "indexed": false,
          "internalType": "uint256",
          "name": "_value",
          "type": "uint256"
        }
      ],
      "name": "TestamentTriggered",
      "type": "event"
    },
    {
      "inputs": [
        {
          "internalType": "address",
          "name": "",
          "type": "address"
        }
      ],
      "name": "isStored",
      "outputs": [
        {
          "internalType": "uint8",
          "name": "",
          "type": "uint8"
        }
      ],
      "stateMutability": "view",
      "type": "function",
      "constant": true
    },
    {
      "inputs": [
        {
          "internalType": "address",
          "name": "",
          "type": "address"
        },
        {
          "internalType": "uint256",
          "name": "",
          "type": "uint256"
        }
      ],
      "name": "testaments",
      "outputs": [
        {
          "internalType": "address payable",
          "name": "account",
          "type": "address"
        },
        {
          "internalType": "int256",
          "name": "amount",
          "type": "int256"
        }
      ],
      "stateMutability": "view",
      "type": "function",
      "constant": true
    },
    {
      "inputs": [],
      "name": "register",
      "outputs": [],
      "stateMutability": "nonpayable",
      "type": "function"
    },
    {
      "inputs": [
        {
          "internalType": "address",
          "name": "beneficiary",
          "type": "address"
        }
      ],
      "name": "addBeneficiary",
      "outputs": [],
      "stateMutability": "payable",
      "type": "function",
      "payable": true
    },
    {
      "inputs": [
        {
          "internalType": "address",
          "name": "_beneficiary",
          "type": "address"
        }
      ],
      "name": "removeBeneficiary",
      "outputs": [],
      "stateMutability": "payable",
      "type": "function",
      "payable": true
    },
    {
      "inputs": [],
      "name": "removeAllBenficiaries",
      "outputs": [],
      "stateMutability": "nonpayable",
      "type": "function"
    },
    {
      "inputs": [],
      "name": "renewSubscribe",
      "outputs": [],
      "stateMutability": "nonpayable",
      "type": "function"
    },
    {
      "inputs": [],
      "name": "unsubscribe",
      "outputs": [],
      "stateMutability": "nonpayable",
      "type": "function"
    },
    {
      "inputs": [
        {
          "internalType": "address",
          "name": "_toCheck",
          "type": "address"
        }
      ],
      "name": "controlValidSubscription",
      "outputs": [],
      "stateMutability": "nonpayable",
      "type": "function"
    }
  ],
  "bytecode": "0x608060405234801561001057600080fd5b5033600360006101000a81548173ffffffffffffffffffffffffffffffffffffffff021916908373ffffffffffffffffffffffffffffffffffffffff160217905550611c96806100616000396000f3fe6080604052600436106100865760003560e01c806359633a1c1161005957806359633a1c1461011257806374b3f1b71461012e578063b3040f8114610157578063bfe219e51461016e578063fcae4484146101ac57610086565b80630151a3f71461008b5780631aa3a008146100c85780633f52fdde146100df5780635926651d146100f6575b600080fd5b34801561009757600080fd5b506100b260048036038101906100ad91906115f1565b6101c3565b6040516100bf919061163a565b60405180910390f35b3480156100d457600080fd5b506100dd6101e3565b005b3480156100eb57600080fd5b506100f46103ef565b005b610110600480360381019061010b91906115f1565b61060d565b005b61012c600480360381019061012791906115f1565b610aff565b005b34801561013a57600080fd5b50610155600480360381019061015091906115f1565b610e21565b005b34801561016357600080fd5b5061016c610f41565b005b34801561017a57600080fd5b506101956004803603810190610190919061168b565b611018565b6040516101a3929190611705565b60405180910390f35b3480156101b857600080fd5b506101c161106f565b005b60016020528060005260406000206000915054906101000a900460ff1681565b6000600160003373ffffffffffffffffffffffffffffffffffffffff1673ffffffffffffffffffffffffffffffffffffffff16815260200190815260200160002060009054906101000a900460ff1660ff1614610275576040517f08c379a000000000000000000000000000000000000000000000000000000000815260040161026c906117b1565b60405180910390fd5b60018060003373ffffffffffffffffffffffffffffffffffffffff1673ffffffffffffffffffffffffffffffffffffffff16815260200190815260200160002060006101000a81548160ff021916908360ff16021790555042600260003373ffffffffffffffffffffffffffffffffffffffff1673ffffffffffffffffffffffffffffffffffffffff1681526020019081526020016000208190555060005b600a60ff168160ff1610156103b5577fffffffffffffffffffffffffffffffffffffffffffffffffffffffffffffffff6000803373ffffffffffffffffffffffffffffffffffffffff1673ffffffffffffffffffffffffffffffffffffffff1681526020019081526020016000208260ff16600a8110610397576103966117d1565b5b600202016001018190555080806103ad9061182f565b915050610314565b507f2d3734a8e47ac8316e500ac231c90a6e1848ca2285f40d07eaa52005e4b3a0e9336040516103e59190611868565b60405180910390a1565b60018060003373ffffffffffffffffffffffffffffffffffffffff1673ffffffffffffffffffffffffffffffffffffffff16815260200190815260200160002060009054906101000a900460ff1660ff1614610480576040517f08c379a0000000000000000000000000000000000000000000000000000000008152600401610477906118f5565b60405180910390fd5b60005b600a60ff168160ff16101561060a577fffffffffffffffffffffffffffffffffffffffffffffffffffffffffffffffff6000803373ffffffffffffffffffffffffffffffffffffffff1673ffffffffffffffffffffffffffffffffffffffff1681526020019081526020016000208260ff16600a8110610506576105056117d1565b5b6002020160010154146105f757610577336000803373ffffffffffffffffffffffffffffffffffffffff1673ffffffffffffffffffffffffffffffffffffffff1681526020019081526020016000208360ff16600a811061056a576105696117d1565b5b6002020160010154611113565b7fffffffffffffffffffffffffffffffffffffffffffffffffffffffffffffffff6000803373ffffffffffffffffffffffffffffffffffffffff1673ffffffffffffffffffffffffffffffffffffffff1681526020019081526020016000208260ff16600a81106105eb576105ea6117d1565b5b60020201600101819055505b80806106029061182f565b915050610483565b50565b60018060003373ffffffffffffffffffffffffffffffffffffffff1673ffffffffffffffffffffffffffffffffffffffff16815260200190815260200160002060009054906101000a900460ff1660ff161461069e576040517f08c379a0000000000000000000000000000000000000000000000000000000008152600401610695906118f5565b60405180910390fd5b60007fffffffffffffffffffffffffffffffffffffffffffffffffffffffffffffffff905060007fffffffffffffffffffffffffffffffffffffffffffffffffffffffffffffffff905060005b600a60ff168160ff1610801561072357507fffffffffffffffffffffffffffffffffffffffffffffffffffffffffffffffff8360000b145b156108a1578373ffffffffffffffffffffffffffffffffffffffff166000803373ffffffffffffffffffffffffffffffffffffffff1673ffffffffffffffffffffffffffffffffffffffff1681526020019081526020016000208260ff16600a8110610792576107916117d1565b5b6002020160000160009054906101000a900473ffffffffffffffffffffffffffffffffffffffff1673ffffffffffffffffffffffffffffffffffffffff1614156107da578092505b7fffffffffffffffffffffffffffffffffffffffffffffffffffffffffffffffff6000803373ffffffffffffffffffffffffffffffffffffffff1673ffffffffffffffffffffffffffffffffffffffff1681526020019081526020016000208260ff16600a811061084e5761084d6117d1565b5b600202016001015414801561088557507fffffffffffffffffffffffffffffffffffffffffffffffffffffffffffffffff8260000b145b1561088e578091505b80806108999061182f565b9150506106eb565b507fffffffffffffffffffffffffffffffffffffffffffffffffffffffffffffffff8260000b131561099657346000803373ffffffffffffffffffffffffffffffffffffffff1673ffffffffffffffffffffffffffffffffffffffff1681526020019081526020016000208360ff16600a8110610921576109206117d1565b5b60020201600101546109339190611915565b6000803373ffffffffffffffffffffffffffffffffffffffff1673ffffffffffffffffffffffffffffffffffffffff1681526020019081526020016000208360ff16600a8110610986576109856117d1565b5b6002020160010181905550610afa565b7fffffffffffffffffffffffffffffffffffffffffffffffffffffffffffffffff8160000b1315610abe57826000803373ffffffffffffffffffffffffffffffffffffffff1673ffffffffffffffffffffffffffffffffffffffff1681526020019081526020016000208260ff16600a8110610a1557610a146117d1565b5b6002020160000160006101000a81548173ffffffffffffffffffffffffffffffffffffffff021916908373ffffffffffffffffffffffffffffffffffffffff160217905550346000803373ffffffffffffffffffffffffffffffffffffffff1673ffffffffffffffffffffffffffffffffffffffff1681526020019081526020016000208260ff16600a8110610aae57610aad6117d1565b5b6002020160010181905550610af9565b6040517f08c379a0000000000000000000000000000000000000000000000000000000008152600401610af090611a1b565b60405180910390fd5b5b505050565b60018060003373ffffffffffffffffffffffffffffffffffffffff1673ffffffffffffffffffffffffffffffffffffffff16815260200190815260200160002060009054906101000a900460ff1660ff1614610b90576040517f08c379a0000000000000000000000000000000000000000000000000000000008152600401610b87906118f5565b60405180910390fd5b6000805b600a60ff168160ff16108015610ba8575081155b15610ddc578273ffffffffffffffffffffffffffffffffffffffff166000803373ffffffffffffffffffffffffffffffffffffffff1673ffffffffffffffffffffffffffffffffffffffff1681526020019081526020016000208260ff16600a8110610c1757610c166117d1565b5b6002020160000160009054906101000a900473ffffffffffffffffffffffffffffffffffffffff1673ffffffffffffffffffffffffffffffffffffffff16148015610cdc57507fffffffffffffffffffffffffffffffffffffffffffffffffffffffffffffffff6000803373ffffffffffffffffffffffffffffffffffffffff1673ffffffffffffffffffffffffffffffffffffffff1681526020019081526020016000208260ff16600a8110610cd157610cd06117d1565b5b600202016001015414155b15610dc95760019150610d49336000803373ffffffffffffffffffffffffffffffffffffffff1673ffffffffffffffffffffffffffffffffffffffff1681526020019081526020016000208360ff16600a8110610d3c57610d3b6117d1565b5b6002020160010154611113565b7fffffffffffffffffffffffffffffffffffffffffffffffffffffffffffffffff6000803373ffffffffffffffffffffffffffffffffffffffff1673ffffffffffffffffffffffffffffffffffffffff1681526020019081526020016000208260ff16600a8110610dbd57610dbc6117d1565b5b60020201600101819055505b8080610dd49061182f565b915050610b94565b5080610e1d576040517f08c379a0000000000000000000000000000000000000000000000000000000008152600401610e1490611aad565b60405180910390fd5b5050565b60018060003373ffffffffffffffffffffffffffffffffffffffff1673ffffffffffffffffffffffffffffffffffffffff16815260200190815260200160002060009054906101000a900460ff1660ff1614610eb2576040517f08c379a0000000000000000000000000000000000000000000000000000000008152600401610ea9906118f5565b60405180910390fd5b6018603c80603c610ec39190611acd565b610ecd9190611acd565b610ed79190611acd565b60ff16600260008373ffffffffffffffffffffffffffffffffffffffff1673ffffffffffffffffffffffffffffffffffffffff16815260200190815260200160002054610f249190611b08565b421115610f3e57610f348161122c565b610f3d816113b5565b5b50565b60018060003373ffffffffffffffffffffffffffffffffffffffff1673ffffffffffffffffffffffffffffffffffffffff16815260200190815260200160002060009054906101000a900460ff1660ff1614610fd2576040517f08c379a0000000000000000000000000000000000000000000000000000000008152600401610fc9906118f5565b60405180910390fd5b42600260003373ffffffffffffffffffffffffffffffffffffffff1673ffffffffffffffffffffffffffffffffffffffff16815260200190815260200160002081905550565b600060205281600052604060002081600a811061103457600080fd5b60020201600091509150508060000160009054906101000a900473ffffffffffffffffffffffffffffffffffffffff16908060010154905082565b60018060003373ffffffffffffffffffffffffffffffffffffffff1673ffffffffffffffffffffffffffffffffffffffff16815260200190815260200160002060009054906101000a900460ff1660ff1614611100576040517f08c379a00000000000000000000000000000000000000000000000000000000081526004016110f7906118f5565b60405180910390fd5b6111086103ef565b611111336113b5565b565b6000808373ffffffffffffffffffffffffffffffffffffffff168360405161113a90611bb5565b60006040518083038185875af1925050503d8060008114611177576040519150601f19603f3d011682016040523d82523d6000602084013e61117c565b606091505b5091509150816111c1576040517f08c379a00000000000000000000000000000000000000000000000000000000081526004016111b890611c16565b60405180910390fd5b8373ffffffffffffffffffffffffffffffffffffffff163073ffffffffffffffffffffffffffffffffffffffff167facbbe40afd7bdf75cc3f63864beeca3e7f215efe7acf0a575dc133c7bf3463b78560405161121e9190611c45565b60405180910390a350505050565b60005b600a60ff168160ff1610156113b1577fffffffffffffffffffffffffffffffffffffffffffffffffffffffffffffffff6000808473ffffffffffffffffffffffffffffffffffffffff1673ffffffffffffffffffffffffffffffffffffffff1681526020019081526020016000208260ff16600a81106112b2576112b16117d1565b5b60020201600101541461139e5761139d6000808473ffffffffffffffffffffffffffffffffffffffff1673ffffffffffffffffffffffffffffffffffffffff1681526020019081526020016000208260ff16600a8110611315576113146117d1565b5b6002020160000160009054906101000a900473ffffffffffffffffffffffffffffffffffffffff166000803373ffffffffffffffffffffffffffffffffffffffff1673ffffffffffffffffffffffffffffffffffffffff1681526020019081526020016000208360ff16600a81106113905761138f6117d1565b5b6002020160010154611113565b5b80806113a99061182f565b91505061122f565b5050565b6000600260008373ffffffffffffffffffffffffffffffffffffffff1673ffffffffffffffffffffffffffffffffffffffff168152602001908152602001600020819055506000600160008373ffffffffffffffffffffffffffffffffffffffff1673ffffffffffffffffffffffffffffffffffffffff16815260200190815260200160002060006101000a81548160ff021916908360ff160217905550600260008273ffffffffffffffffffffffffffffffffffffffff1673ffffffffffffffffffffffffffffffffffffffff16815260200190815260200160002060009055600160008273ffffffffffffffffffffffffffffffffffffffff1673ffffffffffffffffffffffffffffffffffffffff16815260200190815260200160002060006101000a81549060ff02191690556000808273ffffffffffffffffffffffffffffffffffffffff1673ffffffffffffffffffffffffffffffffffffffff168152602001908152602001600020600061152f9190611532565b50565b5080600a60020201906115459190611548565b50565b5b8082111561158a57600080820160006101000a81549073ffffffffffffffffffffffffffffffffffffffff0219169055600182016000905550600201611549565b5090565b600080fd5b600073ffffffffffffffffffffffffffffffffffffffff82169050919050565b60006115be82611593565b9050919050565b6115ce816115b3565b81146115d957600080fd5b50565b6000813590506115eb816115c5565b92915050565b6000602082840312156116075761160661158e565b5b6000611615848285016115dc565b91505092915050565b600060ff82169050919050565b6116348161161e565b82525050565b600060208201905061164f600083018461162b565b92915050565b6000819050919050565b61166881611655565b811461167357600080fd5b50565b6000813590506116858161165f565b92915050565b600080604083850312156116a2576116a161158e565b5b60006116b0858286016115dc565b92505060206116c185828601611676565b9150509250929050565b60006116d682611593565b9050919050565b6116e6816116cb565b82525050565b6000819050919050565b6116ff816116ec565b82525050565b600060408201905061171a60008301856116dd565b61172760208301846116f6565b9392505050565b600082825260208201905092915050565b7f546865204163636f756e7420697320616c72656164792072656769737465726560008201527f6400000000000000000000000000000000000000000000000000000000000000602082015250565b600061179b60218361172e565b91506117a68261173f565b604082019050919050565b600060208201905081810360008301526117ca8161178e565b9050919050565b7f4e487b7100000000000000000000000000000000000000000000000000000000600052603260045260246000fd5b7f4e487b7100000000000000000000000000000000000000000000000000000000600052601160045260246000fd5b600061183a8261161e565b915060ff82141561184e5761184d611800565b5b600182019050919050565b611862816115b3565b82525050565b600060208201905061187d6000830184611859565b92915050565b7f5468652053656e646572204163636f756e74206973206e6f742072656769737460008201527f6572656400000000000000000000000000000000000000000000000000000000602082015250565b60006118df60248361172e565b91506118ea82611883565b604082019050919050565b6000602082019050818103600083015261190e816118d2565b9050919050565b6000611920826116ec565b915061192b836116ec565b9250817f7fffffffffffffffffffffffffffffffffffffffffffffffffffffffffffffff0383136000831215161561196657611965611800565b5b817f800000000000000000000000000000000000000000000000000000000000000003831260008312161561199e5761199d611800565b5b828201905092915050565b7f4e6f20736c6f74732061766169626c6520666f722061206e65772042656e656660008201527f6963696172790000000000000000000000000000000000000000000000000000602082015250565b6000611a0560268361172e565b9150611a10826119a9565b604082019050919050565b60006020820190508181036000830152611a34816119f8565b9050919050565b7f5468652073656c65637465642062656e656669636961727920686173206e6f7460008201527f20626520666f756e640000000000000000000000000000000000000000000000602082015250565b6000611a9760298361172e565b9150611aa282611a3b565b604082019050919050565b60006020820190508181036000830152611ac681611a8a565b9050919050565b6000611ad88261161e565b9150611ae38361161e565b92508160ff0483118215151615611afd57611afc611800565b5b828202905092915050565b6000611b1382611655565b9150611b1e83611655565b9250827fffffffffffffffffffffffffffffffffffffffffffffffffffffffffffffffff03821115611b5357611b52611800565b5b828201905092915050565b600081905092915050565b7f5472616e73616374696f6e204f4b000000000000000000000000000000000000600082015250565b6000611b9f600e83611b5e565b9150611baa82611b69565b600e82019050919050565b6000611bc082611b92565b9150819050919050565b7f4661696c656420746f2073656e64204574686572000000000000000000000000600082015250565b6000611c0060148361172e565b9150611c0b82611bca565b602082019050919050565b60006020820190508181036000830152611c2f81611bf3565b9050919050565b611c3f81611655565b82525050565b6000602082019050611c5a6000830184611c36565b9291505056fea2646970667358221220c14f5c56610190b4414dda4a4cd2f4aa8677f6abc90c762f0c7440888099e1cd64736f6c63430008090033",
  "immutableReferences": {},
  "source": "// SPDX-License-Identifier: MIT\npragma solidity 0.8.9;\n\n//CONTRACT: it lets ETH addresses to subscribe and deposit funds associated to other accounts (beneficiaries).\n//    At least 1 time each 60 days (can be changed) the subscribed account must renew its subscription otherwise its funds are automatically released\n//    to their respective beneficiaries.\n//\n//EXAMPLE: Mary have two sons: Frank and John. Mary deposits on the contract 30 ETH associated to John's address and 15 ETH associated to Frank's address.\n//    Mary passed away (Sadge) and after 60 days her last renew check, her funds are unlocked. If someone (eventually one of her sons) triggers the controlValidSubscription\n//    function associated to her address, Mary's sons will receive the funds deposited by their mother when she was alive.\n\n//To IMPLEMENT in future:\n// 1- check space optimization over variables\n// 2- check fees control over the withdraws and funds release\n// 3 - unit testing\n// 4 - integration testing\ncontract Testament {\n\n  uint8 constant MAX_BENEF = 10; //max number of beneficiaries for each subscribed account\n  uint8 constant MAX_DAYS = 60; //max number of days since the last renew\n\n  struct Beneficiary{\n    address payable account;\n    int amount;\n  }\n\n  mapping(address => Beneficiary[MAX_BENEF]) public testaments;\n  mapping(address => uint8) public isStored; //uint8 is 1 if the address already have been registered, 0 otherwise\n  mapping(address => uint) lastChecks; //date of the last check for each account\n\n  //The indexed parameters for logged events will allow you to search for these events using the indexed parameters as filters.\n  event Registered(address _registeredAddress);\n  event TestamentTriggered(address indexed _from, address indexed _to, uint _value);\n\n  modifier onlyRegistered(){\n    require(isStored[msg.sender] == 1, \"The Sender Account is not registered\");\n    _;\n  }\n\n  address payable ownerAddress;\n  constructor(){\n    ownerAddress = payable(msg.sender);\n  }\n\n  function register() public {\n    require(isStored[msg.sender] == 0, \"The Account is already registered\");\n    isStored[msg.sender] = 1;\n    lastChecks[msg.sender] = block.timestamp;\n    for(uint8 i = 0; i < MAX_BENEF; i++){ //set all amount of beneficiaries at -1 to indicate that are alla empty\n      testaments[msg.sender][i].amount = -1;\n    }\n    emit Registered(msg.sender);\n  }\n\n  function addBeneficiary(address beneficiary) public payable onlyRegistered{\n    int8 addressFound = -1;\n    int8 emptySpotFound = -1;\n    for(uint8 j = 0; j < MAX_BENEF && addressFound == -1; j++){\n      if(testaments[msg.sender][j].account == beneficiary){\n        addressFound = int8(j);\n      }\n      if(testaments[msg.sender][j].amount == -1 && emptySpotFound == -1){\n        emptySpotFound = int8(j);\n      }\n    }\n    if(addressFound > -1){\n      testaments[msg.sender][uint8(addressFound)].amount = testaments[msg.sender][uint8(addressFound)].amount + int(msg.value);\n    } else {\n      if(emptySpotFound > -1){\n        testaments[msg.sender][uint8(emptySpotFound)].account = payable(beneficiary);\n        testaments[msg.sender][uint8(emptySpotFound)].amount =  int(msg.value);\n      } else {\n        //return error because there isn't enough space\n        revert(\"No slots avaible for a new Beneficiary\");\n      }\n    }\n  }\n\n\n  function sendViaCall(address payable _to, uint _value) private {\n       // Call returns a boolean value indicating success or failure.\n       (bool sent, bytes memory data) = _to.call{value: _value}(\"Transaction OK\");\n       require(sent, \"Failed to send Ether\");\n       emit TestamentTriggered(address(this), _to, _value);\n   }\n\n   function removeBeneficiary(address _beneficiary) public payable onlyRegistered{\n     bool addressFound = false;\n     for(uint8 j = 0; j < MAX_BENEF && !addressFound; j++){\n       if(testaments[msg.sender][j].account == _beneficiary && testaments[msg.sender][j].amount != -1){\n         addressFound = true;\n\n         sendViaCall(payable(msg.sender), uint(testaments[msg.sender][j].amount)); //send back the amount deposited\n         testaments[msg.sender][j].amount = -1; //set the cell as avaible\n       }\n     }\n     require(addressFound, \"The selected beneficiary has not be found\");\n   }\n\n\n  function removeAllBenficiaries() public onlyRegistered{\n    for(uint8 j = 0; j < MAX_BENEF; j++){\n      if(testaments[msg.sender][j].amount != -1){\n        sendViaCall(payable(msg.sender), uint(testaments[msg.sender][j].amount)); //send back the amount deposited\n        testaments[msg.sender][j].amount = -1; //set the cell as avaible\n        }\n    }\n  }\n\n  function activateTestaments(address _toCheck) private{\n    for(uint8 j = 0; j < MAX_BENEF; j++){\n      if(testaments[_toCheck][j].amount != -1){\n        sendViaCall(testaments[_toCheck][j].account, uint(testaments[msg.sender][j].amount));\n      }\n    }\n  }\n\n  function renewSubscribe() public onlyRegistered{\n    lastChecks[msg.sender] = block.timestamp;\n  }\n\n  function unsubscribe() public onlyRegistered{\n    removeAllBenficiaries();\n    cleanMemory(msg.sender);\n  }\n\n  function cleanMemory(address _toRemove) private{\n    //reset of respective cells after setting their values to zero\n    lastChecks[_toRemove] = 0;\n    isStored[_toRemove] = 0;\n    delete lastChecks[_toRemove];\n    delete isStored[_toRemove];\n    delete testaments[_toRemove];\n  }\n\n  function controlValidSubscription(address _toCheck) public onlyRegistered{\n    if(block.timestamp > lastChecks[_toCheck] + (MAX_DAYS * 60 * 60 * 24)){ //days can't be applied to MAX_DAYS for some reason, its replaced with 60*60*24 seconds= 1 day\n        //activate all its testaments promises and then delete it\n        activateTestaments(_toCheck);\n        cleanMemory(_toCheck);\n    }\n  }\n}\n",
  "sourcePath": "/home/davide/Documenti/DappTestament/contracts/Testament.sol",
  "compiler": {
    "name": "solc",
    "version": "0.8.9+commit.e5eed63a.Emscripten.clang"
  },
  "schemaVersion": "3.4.3",
  "updatedAt": "2021-10-26T14:12:48.366Z",
  "networkType": "ethereum",
  "devdoc": {
    "kind": "dev",
    "methods": {},
    "version": 1
  },
  "userdoc": {
    "kind": "user",
    "methods": {},
    "version": 1
  }
}